S015000046696E616C5F50726F6A6563742E73726563EF
S11300000C942A000C9447000C9447000C9447006D
S11300100C9447000C9447000C9447000C94470040
S11300200C9447000C9447000C9447000C948403F0
S11300300C9447000C9447000C9447000C94470020
S11300400C9447000C9447000C9447000C94470010
S11300500C94470011241FBECFE5D8E0DEBFCDBF0E
S113006010E0A0E6B0E0EAE7F8E002C005900D92E7
S1130070A639B107D9F720E0A6E9B0E001C01D9286
S1130080A839B207E1F70E94E2010C943B040C94F6
S1130090000084B3846084BB84B3886084BB84B36D
S11300A0806184BB84B3806284BB81B38F7781BB5E
S11300B081B38F7B81BB81B38F7D81BB81B3877F0C
S11300C081BB82B3806882BB82B3806482BB82B30B
S11300D0806282BB82B3886082BB089565E070E071
S11300E08FEF64C095B39C6395BB95B321E030E07A
S11300F0062E02C0220F331F0A94E2F7209529230B
S113010025BB27E030E04CC02430310511F42150E8
S1130110310940B350E0022E02C0559547950A9428
S1130120E2F740FD3BC04FEF51EE94E041505040A8
S11301309040E1F700C0000040B350E0022E02C03E
S1130140559547950A94E2F740FD28C023303105C0
S113015099F485E090E0861B970B46E050E0421B43
S1130160530B880F991F880F991F805A9F4FFC01CA
S1130170E40FF51F808112C085E090E0861B970B89
S113018047E050E0421B530B880F991F880F991FBB
S1130190805A9F4FFC01E40FF51F808121503109E3
S11301A0233031050CF0B0CF615071096230710514
S11301B00CF098CF08959BB3977F9BBB98B3987E20
S11301C098BB282F22952F70922F9870492F50E0BA
S11301D0440F551F2770422B98B3492B48BB9BB340
S11301E09B7F9BBB9BB394609BBBEFE9FFE0319784
S11301F0F1F700C000009BB39B7F9BBB98B3987E34
S113020098BB982F9870292F30E0220F331F8770E6
S1130210282B88B3282B28BB8BB38B7F8BBB8BB34A
S113022084608BBB8FE99FE00197F1F700C0000069
S11302308BB38B7F8BBBEFE1FEE43197F1F700C00A
S1130240000008958AB388608ABB8AB384608ABB3D
S113025087B3816087BB87B3826087BB87B38460C1
S113026087BB87B3806187BB8FE59AEE0197F1F76F
S113027000C0000082E00E94DB0088E20E94DB00F4
S11302808CE00E94DB0081E00E94DB0080E80E9499
S1130290DB0008959BB398609BBB98B3987E98BB92
S11302A0282F22952F70922F9870492F50E0440FD9
S11302B0551F2770422B98B3492B48BB9BB39B7F98
S11302C09BBB9BB394609BBBEFE9FFE03197F1F7D5
S11302D000C000009BB39B7F9BBB98B3987E98BBE8
S11302E0982F9870292F30E0220F331F8770282B06
S11302F088B3282B28BB8BB38B7F8BBB8BB38460D9
S11303008BBB8FE99FE00197F1F700C000008BB32E
S11303108B7F8BBBEFE1FEE43197F1F700C0000067
S113032008950F931F93CF93DF938C01C0E0D0E027
S113033003C00E944A012196F801EC0FFD1F808141
S11303408111F7CFDF91CF911F910F91089581E033
S11303500E94DB0008950F931F93CF93DF93C0E0B7
S1130360D0E025C0D901AA0FBB1FA80FB91F4D911A
S11303705C911197F9013196EE0FFF1FE80FF91FF9
S1130380008111810417150724F40D931C935183E4
S113039040832F5F3F4F02C020E030E0AB014C1B95
S11303A05D0B4150510924173507E4F221969B0156
S11303B021503109C217D3077CF3DF91CF911F91EC
S11303C00F910895CF92DF92EF92FF920F931F93B4
S11303D0CF93DF93CDB7DEB7C05DD1090FB6F894E4
S11303E0DEBF0FBECDBF0E94D9020E9449000E9409
S11303F0220180E790E00E949101E12CF12C00E0C1
S113040010E00E946E008F3FE1F38D33E1F51E147E
S11304101F04FCF424E0E216F1043CF4E9ECF0E0FF
S1130420EC0FFD1FEE0DFF1D108278018FEFE81A0F
S1130430F80ACE0187539F4F0E94D503000F111F66
S1130440E1E0F0E0EC0FFD1FE00FF11F91838083EA
S113045001C078010E94A701B701CE0101960E9454
S1130460AB018FE790E00E9491019FEF29E688E1BC
S1130470915020408040E1F700C000000E94A70195
S113048000E010E06AC0833441F594E0E916F10419
S11304903CF4E9ECF0E0EC0FFD1FEE0DFF1D1082C3
S11304A078012FEFE21AF20ACE0187539F4F0E9480
S11304B0D503000F111FE1E0F0E0EC0FFD1FE00F8A
S11304C0F11F918380830E94A70180E790E00E943E
S11304D091018701E12CF12C94CFE9ECF0E0EC0FD1
S11304E0FD1FEE0DFF1D80839FEFE91AF90A0E949C
S11304F04A0187CFF801EE0FFF1F81E090E08C0FD7
S11305009D1FE80FF91F4AE050E0BE0163537F4F7F
S1130510808191810E94F303CE0183539F4F0E94F7
S11305209101670191E0C91AD1080C151D0521F04C
S113053082E990E00E9491010C151D0519F48EE2E8
S11305400E944A012FEF85EA9EE0215080409040AE
S1130550E1F700C000000F5F1F4F0E151F0554F296
S113056000E010E011C0F801EE0FFF1F81E090E001
S11305708C0F9D1FE80FF91F808191810E94010358
S11305800E9477030F5F1F4F0E151F0564F380E071
S113059090E0C053DF4F0FB6F894DEBF0FBECDBF5F
S11305A0DF91CF911F910F91FF90EF90DF90CF904B
S11305B008958AB384608ABB8AB388608ABB87B390
S11305C0806287BB87B3806487BB88B3887E88BB1F
S11305D087B3816087BB87B3826087BB87B384603E
S11305E087BB87B3806187BB089528B3287E28BB67
S11305F09C0128703327220F331F8770282B28BBB8
S11306000895AF92BF92CF92DF92EF92FF920F9331
S11306101F93CF93DF93FC0168EE73E00E94AD0358
S1130620CB012AE030E0B9010E94AD037C01CF0187
S113063064E670E00E94AD03CB01B9010E94AD03F2
S11306408C01CF01B9010E94AD03A82EB92ECB01B4
S1130650B9010E94AD03EC01C12CD12C38C0C701F3
S11306600E94F5028FE39FE10197F1F700C00000BB
S113067088B320E4282728BBC8010E94F5028FE331
S11306809FE10197F1F700C0000088B320E228271A
S113069028BBCE010E94F5028FE39FE10197F1F799
S11306A000C000008BB324E028272BBB8A2D9B2D90
S11306B00E94F5028FE39FE10197F1F700C000006B
S11306C08BB328E028272BBB95E0C90ED11C84EFFF
S11306D0C81681E0D80618F2DF91CF911F910F91CF
S11306E0FF90EF90DF90CF90BF90AF90089588B3C4
S11306F0806488BB88B3806288BB8BB384608BBB07
S11307008BB388608BBB08951F920F920FB60F9224
S113071011242F933F934F935F936F937F938F9302
S11307209F93AF93BF93EF93FF93E0919600F09163
S11307309700309709F00995FF91EF91BF91AF9120
S11307409F918F917F916F915F914F913F912F91E5
S11307500F900FBE0F901F90189597FB072E16F45D
S1130760009407D077FD09D00E94C10307FC05D08F
S11307703EF4909581959F4F0895709561957F4FB4
S11307800895AA1BBB1B51E107C0AA1FBB1FA617D4
S1130790B70710F0A61BB70B881F991F5A95A9F726
S11307A080959095BC01CD010895FC018827992777
S11307B0E89421912032E9F3293010F02E30C8F367
S11307C02B3241F02D3239F4689404C00E9409049C
S11307D0820F911D219120532A30C0F31EF490956D
S11307E081959F4F08954532510520F4423010F011
S11307F00C94FE03FB011082CB010895BB274A3001
S113080031F4992322F4BDE2909581959F4F0C9485
S113081012047AE0979F902D879F802D910D1124CB
S11308200895BB27FB015527AA27880F991FAA1FE4
S1130830A41710F0A41B83955051B9F7A05DAA33F7
S113084008F0A95DA193009779F7B111B1931192C2
S1130850CB010C942B04DC01FC01672F71917723ED
S1130860E1F7329704C07C916D9370836291AE1767
S10D0870BF07C8F30895F894FFCF02
S113087A3738392F3435362A3132332D43303D2B2C
S113088A454E544552204E554D4245523A20004950
S113089A6E20534F52544544204D616E6E65723A30
S10908AA20002C200000D8
S9030000FC
